{
  "_format": "hh-sol-artifact-1",
  "contractName": "KYC",
  "sourceName": "contracts/KYC.sol",
  "abi": [
    {
      "inputs": [],
      "stateMutability": "nonpayable",
      "type": "constructor"
    },
    {
      "anonymous": false,
      "inputs": [
        {
          "indexed": false,
          "internalType": "address",
          "name": "walletAddress",
          "type": "address"
        }
      ],
      "name": "AccountInvalidated",
      "type": "event"
    },
    {
      "anonymous": false,
      "inputs": [
        {
          "indexed": false,
          "internalType": "string",
          "name": "accountId",
          "type": "string"
        },
        {
          "indexed": false,
          "internalType": "address",
          "name": "walletAddress",
          "type": "address"
        }
      ],
      "name": "AccountValidated",
      "type": "event"
    },
    {
      "anonymous": false,
      "inputs": [
        {
          "indexed": false,
          "internalType": "address",
          "name": "previousAdmin",
          "type": "address"
        },
        {
          "indexed": false,
          "internalType": "address",
          "name": "newAdmin",
          "type": "address"
        }
      ],
      "name": "AdminChanged",
      "type": "event"
    },
    {
      "anonymous": false,
      "inputs": [
        {
          "indexed": true,
          "internalType": "address",
          "name": "beacon",
          "type": "address"
        }
      ],
      "name": "BeaconUpgraded",
      "type": "event"
    },
    {
      "anonymous": false,
      "inputs": [
        {
          "indexed": false,
          "internalType": "uint8",
          "name": "version",
          "type": "uint8"
        }
      ],
      "name": "Initialized",
      "type": "event"
    },
    {
      "anonymous": false,
      "inputs": [
        {
          "indexed": true,
          "internalType": "bytes32",
          "name": "role",
          "type": "bytes32"
        },
        {
          "indexed": true,
          "internalType": "bytes32",
          "name": "previousAdminRole",
          "type": "bytes32"
        },
        {
          "indexed": true,
          "internalType": "bytes32",
          "name": "newAdminRole",
          "type": "bytes32"
        }
      ],
      "name": "RoleAdminChanged",
      "type": "event"
    },
    {
      "anonymous": false,
      "inputs": [
        {
          "indexed": true,
          "internalType": "bytes32",
          "name": "role",
          "type": "bytes32"
        },
        {
          "indexed": true,
          "internalType": "address",
          "name": "account",
          "type": "address"
        },
        {
          "indexed": true,
          "internalType": "address",
          "name": "sender",
          "type": "address"
        }
      ],
      "name": "RoleGranted",
      "type": "event"
    },
    {
      "anonymous": false,
      "inputs": [
        {
          "indexed": true,
          "internalType": "bytes32",
          "name": "role",
          "type": "bytes32"
        },
        {
          "indexed": true,
          "internalType": "address",
          "name": "account",
          "type": "address"
        },
        {
          "indexed": true,
          "internalType": "address",
          "name": "sender",
          "type": "address"
        }
      ],
      "name": "RoleRevoked",
      "type": "event"
    },
    {
      "anonymous": false,
      "inputs": [
        {
          "indexed": true,
          "internalType": "address",
          "name": "implementation",
          "type": "address"
        }
      ],
      "name": "Upgraded",
      "type": "event"
    },
    {
      "inputs": [],
      "name": "ADDRESS_CANNOT_BE_ZERO",
      "outputs": [
        {
          "internalType": "string",
          "name": "",
          "type": "string"
        }
      ],
      "stateMutability": "view",
      "type": "function"
    },
    {
      "inputs": [],
      "name": "ADDRESS_NOT_VALID",
      "outputs": [
        {
          "internalType": "string",
          "name": "",
          "type": "string"
        }
      ],
      "stateMutability": "view",
      "type": "function"
    },
    {
      "inputs": [],
      "name": "DEFAULT_ADMIN_ROLE",
      "outputs": [
        {
          "internalType": "bytes32",
          "name": "",
          "type": "bytes32"
        }
      ],
      "stateMutability": "view",
      "type": "function"
    },
    {
      "inputs": [],
      "name": "INVALID_ACCOUNT_ID",
      "outputs": [
        {
          "internalType": "string",
          "name": "",
          "type": "string"
        }
      ],
      "stateMutability": "view",
      "type": "function"
    },
    {
      "inputs": [],
      "name": "SET_KYC",
      "outputs": [
        {
          "internalType": "bytes32",
          "name": "",
          "type": "bytes32"
        }
      ],
      "stateMutability": "view",
      "type": "function"
    },
    {
      "inputs": [],
      "name": "UPGRADER_ROLE",
      "outputs": [
        {
          "internalType": "bytes32",
          "name": "",
          "type": "bytes32"
        }
      ],
      "stateMutability": "view",
      "type": "function"
    },
    {
      "inputs": [
        {
          "internalType": "address",
          "name": "walletAddress",
          "type": "address"
        }
      ],
      "name": "getAccountId",
      "outputs": [
        {
          "internalType": "string",
          "name": "",
          "type": "string"
        }
      ],
      "stateMutability": "view",
      "type": "function"
    },
    {
      "inputs": [
        {
          "internalType": "bytes32",
          "name": "role",
          "type": "bytes32"
        }
      ],
      "name": "getRoleAdmin",
      "outputs": [
        {
          "internalType": "bytes32",
          "name": "",
          "type": "bytes32"
        }
      ],
      "stateMutability": "view",
      "type": "function"
    },
    {
      "inputs": [
        {
          "internalType": "bytes32",
          "name": "role",
          "type": "bytes32"
        },
        {
          "internalType": "address",
          "name": "account",
          "type": "address"
        }
      ],
      "name": "grantRole",
      "outputs": [],
      "stateMutability": "nonpayable",
      "type": "function"
    },
    {
      "inputs": [
        {
          "internalType": "address",
          "name": "recipient",
          "type": "address"
        }
      ],
      "name": "grantRoleForKyc",
      "outputs": [],
      "stateMutability": "nonpayable",
      "type": "function"
    },
    {
      "inputs": [
        {
          "internalType": "bytes32",
          "name": "role",
          "type": "bytes32"
        },
        {
          "internalType": "address",
          "name": "account",
          "type": "address"
        }
      ],
      "name": "hasRole",
      "outputs": [
        {
          "internalType": "bool",
          "name": "",
          "type": "bool"
        }
      ],
      "stateMutability": "view",
      "type": "function"
    },
    {
      "inputs": [],
      "name": "initialize",
      "outputs": [],
      "stateMutability": "nonpayable",
      "type": "function"
    },
    {
      "inputs": [
        {
          "internalType": "address",
          "name": "walletAddress",
          "type": "address"
        }
      ],
      "name": "invalidateAccount",
      "outputs": [],
      "stateMutability": "nonpayable",
      "type": "function"
    },
    {
      "inputs": [
        {
          "internalType": "address",
          "name": "walletAddress",
          "type": "address"
        }
      ],
      "name": "isValid",
      "outputs": [
        {
          "internalType": "string",
          "name": "",
          "type": "string"
        }
      ],
      "stateMutability": "view",
      "type": "function"
    },
    {
      "inputs": [
        {
          "internalType": "address",
          "name": "",
          "type": "address"
        }
      ],
      "name": "kycAccount",
      "outputs": [
        {
          "internalType": "string",
          "name": "accountId",
          "type": "string"
        },
        {
          "internalType": "uint256",
          "name": "validationDate",
          "type": "uint256"
        }
      ],
      "stateMutability": "view",
      "type": "function"
    },
    {
      "inputs": [],
      "name": "proxiableUUID",
      "outputs": [
        {
          "internalType": "bytes32",
          "name": "",
          "type": "bytes32"
        }
      ],
      "stateMutability": "view",
      "type": "function"
    },
    {
      "inputs": [
        {
          "internalType": "bytes32",
          "name": "role",
          "type": "bytes32"
        },
        {
          "internalType": "address",
          "name": "account",
          "type": "address"
        }
      ],
      "name": "renounceRole",
      "outputs": [],
      "stateMutability": "nonpayable",
      "type": "function"
    },
    {
      "inputs": [
        {
          "internalType": "bytes32",
          "name": "role",
          "type": "bytes32"
        },
        {
          "internalType": "address",
          "name": "account",
          "type": "address"
        }
      ],
      "name": "revokeRole",
      "outputs": [],
      "stateMutability": "nonpayable",
      "type": "function"
    },
    {
      "inputs": [
        {
          "internalType": "address",
          "name": "recipient",
          "type": "address"
        }
      ],
      "name": "revokeRoleForKyc",
      "outputs": [],
      "stateMutability": "nonpayable",
      "type": "function"
    },
    {
      "inputs": [
        {
          "internalType": "bytes4",
          "name": "interfaceId",
          "type": "bytes4"
        }
      ],
      "name": "supportsInterface",
      "outputs": [
        {
          "internalType": "bool",
          "name": "",
          "type": "bool"
        }
      ],
      "stateMutability": "view",
      "type": "function"
    },
    {
      "inputs": [
        {
          "internalType": "address",
          "name": "newImplementation",
          "type": "address"
        }
      ],
      "name": "upgradeTo",
      "outputs": [],
      "stateMutability": "nonpayable",
      "type": "function"
    },
    {
      "inputs": [
        {
          "internalType": "address",
          "name": "newImplementation",
          "type": "address"
        },
        {
          "internalType": "bytes",
          "name": "data",
          "type": "bytes"
        }
      ],
      "name": "upgradeToAndCall",
      "outputs": [],
      "stateMutability": "payable",
      "type": "function"
    },
    {
      "inputs": [
        {
          "internalType": "string",
          "name": "accountId",
          "type": "string"
        },
        {
          "internalType": "address",
          "name": "walletAddress",
          "type": "address"
        }
      ],
      "name": "validateAccount",
      "outputs": [
        {
          "internalType": "bool",
          "name": "",
          "type": "bool"
        }
      ],
      "stateMutability": "nonpayable",
      "type": "function"
    }
  ],
  "bytecode": "0x60a0604052306080523480156200001557600080fd5b50600054610100900460ff1615808015620000375750600054600160ff909116105b8062000067575062000054306200014160201b620013c31760201c565b15801562000067575060005460ff166001145b620000cf5760405162461bcd60e51b815260206004820152602e60248201527f496e697469616c697a61626c653a20636f6e747261637420697320616c72656160448201526d191e481a5b9a5d1a585b1a5e995960921b606482015260840160405180910390fd5b6000805460ff191660011790558015620000f3576000805461ff0019166101001790555b80156200013a576000805461ff0019169055604051600181527f7f26b83ff96e1f2b6a682f133852f6798a09c465da95921460cefb38474024989060200160405180910390a15b5062000150565b6001600160a01b03163b151590565b6080516123b762000196600039600081816108c80152818161095e01528181610a6501528181610afb01528181610bf20152818161151601526115ac01526123b76000f3fe6080604052600436106101805760003560e01c806352d1902d116100d6578063a217fddf1161007f578063e0b490f711610059578063e0b490f7146104dc578063f72c0d8b146104fc578063f86a44ad1461053057600080fd5b8063a217fddf1461045e578063c183b85b14610473578063d547741f146104bc57600080fd5b80638b1b925f116100b05780638b1b925f146103d857806391d14854146103f857806397d3f2be1461043e57600080fd5b806352d1902d1461038e5780638129fc1c146103a35780638408d315146103b857600080fd5b8063248a9ca3116101385780633659cfe6116101125780633659cfe6146103125780633afea586146103325780634f1ef2861461037b57600080fd5b8063248a9ca3146102a05780632f2ff15d146102d057806336568abe146102f257600080fd5b80630f58648f116101695780630f58648f146101e85780631e6258301461023e57806323140b991461025e57600080fd5b806301ffc9a714610185578063094c566c146101ba575b600080fd5b34801561019157600080fd5b506101a56101a0366004611e38565b610550565b60405190151581526020015b60405180910390f35b3480156101c657600080fd5b506101da6101d5366004611e96565b6105e9565b6040516101b1929190611f01565b3480156101f457600080fd5b506102316040518060400160405280601881526020017f41646472657373206973206e6f74204b59432076616c6964000000000000000081525081565b6040516101b19190611f23565b34801561024a57600080fd5b506101a5610259366004611fc2565b61068d565b34801561026a57600080fd5b506102927f353580da269761db872db8b33dc2c08818fa5fc6b4526c8ec1d1fcd36c75aaa381565b6040519081526020016101b1565b3480156102ac57600080fd5b506102926102bb366004612024565b60009081526065602052604090206001015490565b3480156102dc57600080fd5b506102f06102eb36600461203d565b610808565b005b3480156102fe57600080fd5b506102f061030d36600461203d565b610832565b34801561031e57600080fd5b506102f061032d366004611e96565b6108be565b34801561033e57600080fd5b506102316040518060400160405280601681526020017f416464726573732063616e6e6f74206265207a65726f0000000000000000000081525081565b6102f0610389366004612060565b610a5b565b34801561039a57600080fd5b50610292610be5565b3480156103af57600080fd5b506102f0610caa565b3480156103c457600080fd5b506102f06103d3366004611e96565b610e06565b3480156103e457600080fd5b506102316103f3366004611e96565b610e3b565b34801561040457600080fd5b506101a561041336600461203d565b60009182526065602090815260408084206001600160a01b0393909316845291905290205460ff1690565b34801561044a57600080fd5b506102f0610459366004611e96565b610fc9565b34801561046a57600080fd5b50610292600081565b34801561047f57600080fd5b506102316040518060400160405280601c81526020017f4c6f6f6b73206c696b6520696e76616c6964206163636f756e7449640000000081525081565b3480156104c857600080fd5b506102f06104d736600461203d565b6111e3565b3480156104e857600080fd5b506102316104f7366004611e96565b611208565b34801561050857600080fd5b506102927f189ab7a9244df0848122154315af71fe140f3db0fe014031783b0946b8c9d2e381565b34801561053c57600080fd5b506102f061054b366004611e96565b61138e565b60007fffffffff0000000000000000000000000000000000000000000000000000000082167f7965db0b0000000000000000000000000000000000000000000000000000000014806105e357507f01ffc9a7000000000000000000000000000000000000000000000000000000007fffffffff000000000000000000000000000000000000000000000000000000008316145b92915050565b60fb60205260009081526040902080548190610604906120c2565b80601f0160208091040260200160405190810160405280929190818152602001828054610630906120c2565b801561067d5780601f106106525761010080835404028352916020019161067d565b820191906000526020600020905b81548152906001019060200180831161066057829003601f168201915b5050505050908060010154905082565b60007f353580da269761db872db8b33dc2c08818fa5fc6b4526c8ec1d1fcd36c75aaa36106b9816113d2565b60408051808201909152601681527f416464726573732063616e6e6f74206265207a65726f00000000000000000000602082015283906001600160a01b03821661071f5760405162461bcd60e51b81526004016107169190611f23565b60405180910390fd5b50845160408051808201909152601c81527f4c6f6f6b73206c696b6520696e76616c6964206163636f756e74496400000000602082015286916024146107785760405162461bcd60e51b81526004016107169190611f23565b50604080518082018252878152426020808301919091526001600160a01b038816600090815260fb90915291909120815181906107b59082612144565b50602082015181600101559050507f25804d5376aba3eb6bd8bba9b98b7b1d34532aab2ddc9db913fbc8b63dc9537a86866040516107f4929190612204565b60405180910390a150600195945050505050565b600082815260656020526040902060010154610823816113d2565b61082d83836113dc565b505050565b6001600160a01b03811633146108b05760405162461bcd60e51b815260206004820152602f60248201527f416363657373436f6e74726f6c3a2063616e206f6e6c792072656e6f756e636560448201527f20726f6c657320666f722073656c6600000000000000000000000000000000006064820152608401610716565b6108ba828261147e565b5050565b6001600160a01b037f000000000000000000000000000000000000000000000000000000000000000016300361095c5760405162461bcd60e51b815260206004820152602c60248201527f46756e6374696f6e206d7573742062652063616c6c6564207468726f7567682060448201527f64656c656761746563616c6c00000000000000000000000000000000000000006064820152608401610716565b7f00000000000000000000000000000000000000000000000000000000000000006001600160a01b03166109b77f360894a13ba1a3210667c828492db98dca3e2076cc3735a920a3ca505d382bbc546001600160a01b031690565b6001600160a01b031614610a335760405162461bcd60e51b815260206004820152602c60248201527f46756e6374696f6e206d7573742062652063616c6c6564207468726f7567682060448201527f6163746976652070726f787900000000000000000000000000000000000000006064820152608401610716565b610a3c81611501565b60408051600080825260208201909252610a589183919061168a565b50565b6001600160a01b037f0000000000000000000000000000000000000000000000000000000000000000163003610af95760405162461bcd60e51b815260206004820152602c60248201527f46756e6374696f6e206d7573742062652063616c6c6564207468726f7567682060448201527f64656c656761746563616c6c00000000000000000000000000000000000000006064820152608401610716565b7f00000000000000000000000000000000000000000000000000000000000000006001600160a01b0316610b547f360894a13ba1a3210667c828492db98dca3e2076cc3735a920a3ca505d382bbc546001600160a01b031690565b6001600160a01b031614610bd05760405162461bcd60e51b815260206004820152602c60248201527f46756e6374696f6e206d7573742062652063616c6c6564207468726f7567682060448201527f6163746976652070726f787900000000000000000000000000000000000000006064820152608401610716565b610bd982611501565b6108ba8282600161168a565b6000306001600160a01b037f00000000000000000000000000000000000000000000000000000000000000001614610c855760405162461bcd60e51b815260206004820152603860248201527f555550535570677261646561626c653a206d757374206e6f742062652063616c60448201527f6c6564207468726f7567682064656c656761746563616c6c00000000000000006064820152608401610716565b507f360894a13ba1a3210667c828492db98dca3e2076cc3735a920a3ca505d382bbc90565b600054610100900460ff1615808015610cca5750600054600160ff909116105b80610ce45750303b158015610ce4575060005460ff166001145b610d565760405162461bcd60e51b815260206004820152602e60248201527f496e697469616c697a61626c653a20636f6e747261637420697320616c72656160448201527f647920696e697469616c697a65640000000000000000000000000000000000006064820152608401610716565b6000805460ff191660011790558015610d79576000805461ff0019166101001790555b610d8161182a565b610d8961182a565b610d946000336113dc565b610dbe7f353580da269761db872db8b33dc2c08818fa5fc6b4526c8ec1d1fcd36c75aaa3336113dc565b8015610a58576000805461ff0019169055604051600181527f7f26b83ff96e1f2b6a682f133852f6798a09c465da95921460cefb38474024989060200160405180910390a150565b6000610e11816113d2565b6108ba7f353580da269761db872db8b33dc2c08818fa5fc6b4526c8ec1d1fcd36c75aaa383610808565b60408051808201909152601681527f416464726573732063616e6e6f74206265207a65726f00000000000000000000602082015260609082906001600160a01b038216610e9b5760405162461bcd60e51b81526004016107169190611f23565b506001600160a01b038316600090815260fb60205260408082208151808301909252805482908290610ecc906120c2565b80601f0160208091040260200160405190810160405280929190818152602001828054610ef8906120c2565b8015610f455780601f10610f1a57610100808354040283529160200191610f45565b820191906000526020600020905b815481529060010190602001808311610f2857829003601f168201915b5050505050815260200160018201548152505090506000816000015190508051600014156040518060400160405280601881526020017f41646472657373206973206e6f74204b59432076616c6964000000000000000081525090610fbd5760405162461bcd60e51b81526004016107169190611f23565b50505191505b50919050565b7f353580da269761db872db8b33dc2c08818fa5fc6b4526c8ec1d1fcd36c75aaa3610ff3816113d2565b60408051808201909152601681527f416464726573732063616e6e6f74206265207a65726f00000000000000000000602082015282906001600160a01b0382166110505760405162461bcd60e51b81526004016107169190611f23565b506001600160a01b038316600090815260fb60205260408082208151808301909252805482908290611081906120c2565b80601f01602080910402602001604051908101604052809291908181526020018280546110ad906120c2565b80156110fa5780601f106110cf576101008083540402835291602001916110fa565b820191906000526020600020905b8154815290600101906020018083116110dd57829003601f168201915b5050505050815260200160018201548152505090506000816000015190508051600014156040518060400160405280601881526020017f41646472657373206973206e6f74204b59432076616c69640000000000000000815250906111725760405162461bcd60e51b81526004016107169190611f23565b506001600160a01b038516600090815260fb60205260408120906111968282611dea565b506000600191909101556040516001600160a01b03861681527f81b5f6b3171c4a45c56498df6405815e9b8f677e0f06cb5eba743c8728e515ff9060200160405180910390a15050505050565b6000828152606560205260409020600101546111fe816113d2565b61082d838361147e565b60408051808201909152601681527f416464726573732063616e6e6f74206265207a65726f00000000000000000000602082015260609082906001600160a01b0382166112685760405162461bcd60e51b81526004016107169190611f23565b506001600160a01b038316600090815260fb60205260408082208151808301909252805482908290611299906120c2565b80601f01602080910402602001604051908101604052809291908181526020018280546112c5906120c2565b80156113125780601f106112e757610100808354040283529160200191611312565b820191906000526020600020905b8154815290600101906020018083116112f557829003601f168201915b505050505081526020016001820154815250509050806000015151600014156040518060400160405280601881526020017f41646472657373206973206e6f74204b59432076616c69640000000000000000815250906113855760405162461bcd60e51b81526004016107169190611f23565b50519392505050565b6000611399816113d2565b6108ba7f353580da269761db872db8b33dc2c08818fa5fc6b4526c8ec1d1fcd36c75aaa3836111e3565b6001600160a01b03163b151590565b610a5881336118a9565b60008281526065602090815260408083206001600160a01b038516845290915290205460ff166108ba5760008281526065602090815260408083206001600160a01b03851684529091529020805460ff1916600117905561143a3390565b6001600160a01b0316816001600160a01b0316837f2f8788117e7eff1d82e926ec794901d17c78024a50270940304540a733656f0d60405160405180910390a45050565b60008281526065602090815260408083206001600160a01b038516845290915290205460ff16156108ba5760008281526065602090815260408083206001600160a01b0385168085529252808320805460ff1916905551339285917ff6391f5c32d9c69d2a47ea670b442974b53935d1edc7fd64eb21e047a839171b9190a45050565b600061150c816113d2565b6001600160a01b037f00000000000000000000000000000000000000000000000000000000000000001630036115aa5760405162461bcd60e51b815260206004820152602c60248201527f46756e6374696f6e206d7573742062652063616c6c6564207468726f7567682060448201527f64656c656761746563616c6c00000000000000000000000000000000000000006064820152608401610716565b7f00000000000000000000000000000000000000000000000000000000000000006001600160a01b03166116057f360894a13ba1a3210667c828492db98dca3e2076cc3735a920a3ca505d382bbc546001600160a01b031690565b6001600160a01b0316146116815760405162461bcd60e51b815260206004820152602c60248201527f46756e6374696f6e206d7573742062652063616c6c6564207468726f7567682060448201527f6163746976652070726f787900000000000000000000000000000000000000006064820152608401610716565b6108ba8261191e565b7f4910fdfa16fed3260ed0e7147f7cc6da11a60208b5b9406d12a635614ffd91435460ff16156116bd5761082d8361195e565b826001600160a01b03166352d1902d6040518163ffffffff1660e01b8152600401602060405180830381865afa925050508015611717575060408051601f3d908101601f191682019092526117149181019061222f565b60015b6117895760405162461bcd60e51b815260206004820152602e60248201527f45524331393637557067726164653a206e657720696d706c656d656e7461746960448201527f6f6e206973206e6f7420555550530000000000000000000000000000000000006064820152608401610716565b7f360894a13ba1a3210667c828492db98dca3e2076cc3735a920a3ca505d382bbc811461181e5760405162461bcd60e51b815260206004820152602960248201527f45524331393637557067726164653a20756e737570706f727465642070726f7860448201527f6961626c655555494400000000000000000000000000000000000000000000006064820152608401610716565b5061082d838383611a34565b600054610100900460ff166118a75760405162461bcd60e51b815260206004820152602b60248201527f496e697469616c697a61626c653a20636f6e7472616374206973206e6f74206960448201527f6e697469616c697a696e670000000000000000000000000000000000000000006064820152608401610716565b565b60008281526065602090815260408083206001600160a01b038516845290915290205460ff166108ba576118dc81611a5f565b6118e7836020611a71565b6040516020016118f8929190612248565b60408051601f198184030181529082905262461bcd60e51b825261071691600401611f23565b6119278161195e565b6040516001600160a01b038216907fbc7cd75a20ee27fd9adebab32041f755214dbc6bffa90cc0225b39da2e5c2d3b90600090a250565b6001600160a01b0381163b6119db5760405162461bcd60e51b815260206004820152602d60248201527f455243313936373a206e657720696d706c656d656e746174696f6e206973206e60448201527f6f74206120636f6e7472616374000000000000000000000000000000000000006064820152608401610716565b7f360894a13ba1a3210667c828492db98dca3e2076cc3735a920a3ca505d382bbc80547fffffffffffffffffffffffff0000000000000000000000000000000000000000166001600160a01b0392909216919091179055565b611a3d8361191e565b600082511180611a4a5750805b1561082d57611a598383611ca1565b50505050565b60606105e36001600160a01b03831660145b60606000611a808360026122df565b611a8b9060026122fe565b67ffffffffffffffff811115611aa357611aa3611f36565b6040519080825280601f01601f191660200182016040528015611acd576020820181803683370190505b5090507f300000000000000000000000000000000000000000000000000000000000000081600081518110611b0457611b04612311565b60200101907effffffffffffffffffffffffffffffffffffffffffffffffffffffffffffff1916908160001a9053507f780000000000000000000000000000000000000000000000000000000000000081600181518110611b6757611b67612311565b60200101907effffffffffffffffffffffffffffffffffffffffffffffffffffffffffffff1916908160001a9053506000611ba38460026122df565b611bae9060016122fe565b90505b6001811115611c4b577f303132333435363738396162636465660000000000000000000000000000000085600f1660108110611bef57611bef612311565b1a60f81b828281518110611c0557611c05612311565b60200101907effffffffffffffffffffffffffffffffffffffffffffffffffffffffffffff1916908160001a90535060049490941c93611c4481612327565b9050611bb1565b508315611c9a5760405162461bcd60e51b815260206004820181905260248201527f537472696e67733a20686578206c656e67746820696e73756666696369656e746044820152606401610716565b9392505050565b60606001600160a01b0383163b611d205760405162461bcd60e51b815260206004820152602660248201527f416464726573733a2064656c65676174652063616c6c20746f206e6f6e2d636f60448201527f6e747261637400000000000000000000000000000000000000000000000000006064820152608401610716565b600080846001600160a01b031684604051611d3b919061233e565b600060405180830381855af49150503d8060008114611d76576040519150601f19603f3d011682016040523d82523d6000602084013e611d7b565b606091505b5091509150611da3828260405180606001604052806027815260200161235b60279139611dac565b95945050505050565b60608315611dbb575081611c9a565b611c9a8383815115611dd05781518083602001fd5b8060405162461bcd60e51b81526004016107169190611f23565b508054611df6906120c2565b6000825580601f10611e06575050565b601f016020900490600052602060002090810190610a5891905b80821115611e345760008155600101611e20565b5090565b600060208284031215611e4a57600080fd5b81357fffffffff0000000000000000000000000000000000000000000000000000000081168114611c9a57600080fd5b80356001600160a01b0381168114611e9157600080fd5b919050565b600060208284031215611ea857600080fd5b611c9a82611e7a565b60005b83811015611ecc578181015183820152602001611eb4565b50506000910152565b60008151808452611eed816020860160208601611eb1565b601f01601f19169290920160200192915050565b604081526000611f146040830185611ed5565b90508260208301529392505050565b602081526000611c9a6020830184611ed5565b634e487b7160e01b600052604160045260246000fd5b600067ffffffffffffffff80841115611f6757611f67611f36565b604051601f8501601f19908116603f01168101908282118183101715611f8f57611f8f611f36565b81604052809350858152868686011115611fa857600080fd5b858560208301376000602087830101525050509392505050565b60008060408385031215611fd557600080fd5b823567ffffffffffffffff811115611fec57600080fd5b8301601f81018513611ffd57600080fd5b61200c85823560208401611f4c565b92505061201b60208401611e7a565b90509250929050565b60006020828403121561203657600080fd5b5035919050565b6000806040838503121561205057600080fd5b8235915061201b60208401611e7a565b6000806040838503121561207357600080fd5b61207c83611e7a565b9150602083013567ffffffffffffffff81111561209857600080fd5b8301601f810185136120a957600080fd5b6120b885823560208401611f4c565b9150509250929050565b600181811c908216806120d657607f821691505b602082108103610fc357634e487b7160e01b600052602260045260246000fd5b601f82111561082d57600081815260208120601f850160051c8101602086101561211d5750805b601f850160051c820191505b8181101561213c57828155600101612129565b505050505050565b815167ffffffffffffffff81111561215e5761215e611f36565b6121728161216c84546120c2565b846120f6565b602080601f8311600181146121a7576000841561218f5750858301515b600019600386901b1c1916600185901b17855561213c565b600085815260208120601f198616915b828110156121d6578886015182559484019460019091019084016121b7565b50858210156121f45787850151600019600388901b60f8161c191681555b5050505050600190811b01905550565b6040815260006122176040830185611ed5565b90506001600160a01b03831660208301529392505050565b60006020828403121561224157600080fd5b5051919050565b7f416363657373436f6e74726f6c3a206163636f756e7420000000000000000000815260008351612280816017850160208801611eb1565b7f206973206d697373696e6720726f6c652000000000000000000000000000000060179184019182015283516122bd816028840160208801611eb1565b01602801949350505050565b634e487b7160e01b600052601160045260246000fd5b60008160001904831182151516156122f9576122f96122c9565b500290565b808201808211156105e3576105e36122c9565b634e487b7160e01b600052603260045260246000fd5b600081612336576123366122c9565b506000190190565b60008251612350818460208701611eb1565b919091019291505056fe416464726573733a206c6f772d6c6576656c2064656c65676174652063616c6c206661696c6564a26469706673582212207610595afc20cd249384e1b6627395717dac04590eb273d512ed76c465f47a6a64736f6c63430008100033",
  "linkReferences": {},
  "deployedLinkReferences": {}
}