{
  "_format": "hh-sol-artifact-1",
  "contractName": "LiminalMarket",
  "sourceName": "contracts/LiminalMarket.sol",
  "abi": [
    {
      "inputs": [],
      "stateMutability": "nonpayable",
      "type": "constructor"
    },
    {
      "anonymous": false,
      "inputs": [
        {
          "indexed": false,
          "internalType": "address",
          "name": "previousAdmin",
          "type": "address"
        },
        {
          "indexed": false,
          "internalType": "address",
          "name": "newAdmin",
          "type": "address"
        }
      ],
      "name": "AdminChanged",
      "type": "event"
    },
    {
      "anonymous": false,
      "inputs": [
        {
          "indexed": true,
          "internalType": "address",
          "name": "beacon",
          "type": "address"
        }
      ],
      "name": "BeaconUpgraded",
      "type": "event"
    },
    {
      "anonymous": false,
      "inputs": [
        {
          "indexed": false,
          "internalType": "address",
          "name": "walletAddress",
          "type": "address"
        },
        {
          "indexed": false,
          "internalType": "uint256",
          "name": "amount",
          "type": "uint256"
        },
        {
          "indexed": false,
          "internalType": "string",
          "name": "accountId",
          "type": "string"
        },
        {
          "indexed": false,
          "internalType": "string",
          "name": "symbol",
          "type": "string"
        },
        {
          "indexed": false,
          "internalType": "address",
          "name": "tokenAddress",
          "type": "address"
        },
        {
          "indexed": false,
          "internalType": "address",
          "name": "spender",
          "type": "address"
        }
      ],
      "name": "BuyWithAUsd",
      "type": "event"
    },
    {
      "anonymous": false,
      "inputs": [
        {
          "indexed": false,
          "internalType": "uint8",
          "name": "version",
          "type": "uint8"
        }
      ],
      "name": "Initialized",
      "type": "event"
    },
    {
      "anonymous": false,
      "inputs": [
        {
          "indexed": false,
          "internalType": "address",
          "name": "recipient",
          "type": "address"
        },
        {
          "indexed": false,
          "internalType": "string",
          "name": "symbol",
          "type": "string"
        },
        {
          "indexed": false,
          "internalType": "uint256",
          "name": "tsl",
          "type": "uint256"
        },
        {
          "indexed": false,
          "internalType": "uint256",
          "name": "filledQty",
          "type": "uint256"
        },
        {
          "indexed": false,
          "internalType": "uint256",
          "name": "filledAvgPrice",
          "type": "uint256"
        },
        {
          "indexed": false,
          "internalType": "string",
          "name": "side",
          "type": "string"
        },
        {
          "indexed": false,
          "internalType": "uint256",
          "name": "filledAt",
          "type": "uint256"
        },
        {
          "indexed": false,
          "internalType": "uint256",
          "name": "commission",
          "type": "uint256"
        },
        {
          "indexed": false,
          "internalType": "uint256",
          "name": "aUsdBalance",
          "type": "uint256"
        },
        {
          "indexed": false,
          "internalType": "address",
          "name": "spender",
          "type": "address"
        }
      ],
      "name": "OrderExecuted",
      "type": "event"
    },
    {
      "anonymous": false,
      "inputs": [
        {
          "indexed": false,
          "internalType": "address",
          "name": "recipient",
          "type": "address"
        },
        {
          "indexed": false,
          "internalType": "string",
          "name": "symbol",
          "type": "string"
        },
        {
          "indexed": false,
          "internalType": "uint256",
          "name": "buyingPower",
          "type": "uint256"
        },
        {
          "indexed": false,
          "internalType": "string",
          "name": "message",
          "type": "string"
        },
        {
          "indexed": false,
          "internalType": "address",
          "name": "spender",
          "type": "address"
        }
      ],
      "name": "OrderFailed",
      "type": "event"
    },
    {
      "anonymous": false,
      "inputs": [
        {
          "indexed": false,
          "internalType": "address",
          "name": "account",
          "type": "address"
        }
      ],
      "name": "Paused",
      "type": "event"
    },
    {
      "anonymous": false,
      "inputs": [
        {
          "indexed": true,
          "internalType": "bytes32",
          "name": "role",
          "type": "bytes32"
        },
        {
          "indexed": true,
          "internalType": "bytes32",
          "name": "previousAdminRole",
          "type": "bytes32"
        },
        {
          "indexed": true,
          "internalType": "bytes32",
          "name": "newAdminRole",
          "type": "bytes32"
        }
      ],
      "name": "RoleAdminChanged",
      "type": "event"
    },
    {
      "anonymous": false,
      "inputs": [
        {
          "indexed": true,
          "internalType": "bytes32",
          "name": "role",
          "type": "bytes32"
        },
        {
          "indexed": true,
          "internalType": "address",
          "name": "account",
          "type": "address"
        },
        {
          "indexed": true,
          "internalType": "address",
          "name": "sender",
          "type": "address"
        }
      ],
      "name": "RoleGranted",
      "type": "event"
    },
    {
      "anonymous": false,
      "inputs": [
        {
          "indexed": true,
          "internalType": "bytes32",
          "name": "role",
          "type": "bytes32"
        },
        {
          "indexed": true,
          "internalType": "address",
          "name": "account",
          "type": "address"
        },
        {
          "indexed": true,
          "internalType": "address",
          "name": "sender",
          "type": "address"
        }
      ],
      "name": "RoleRevoked",
      "type": "event"
    },
    {
      "anonymous": false,
      "inputs": [
        {
          "indexed": false,
          "internalType": "string",
          "name": "accountId",
          "type": "string"
        },
        {
          "indexed": false,
          "internalType": "address",
          "name": "walletAddress",
          "type": "address"
        },
        {
          "indexed": false,
          "internalType": "address",
          "name": "aUsdAddress",
          "type": "address"
        },
        {
          "indexed": false,
          "internalType": "string",
          "name": "symbol",
          "type": "string"
        },
        {
          "indexed": false,
          "internalType": "uint256",
          "name": "amount",
          "type": "uint256"
        },
        {
          "indexed": false,
          "internalType": "address",
          "name": "spender",
          "type": "address"
        }
      ],
      "name": "SellSecurityToken",
      "type": "event"
    },
    {
      "anonymous": false,
      "inputs": [
        {
          "indexed": false,
          "internalType": "address",
          "name": "tokenAddress",
          "type": "address"
        },
        {
          "indexed": false,
          "internalType": "string",
          "name": "symbol",
          "type": "string"
        }
      ],
      "name": "TokenCreated",
      "type": "event"
    },
    {
      "anonymous": false,
      "inputs": [
        {
          "indexed": false,
          "internalType": "address",
          "name": "account",
          "type": "address"
        }
      ],
      "name": "Unpaused",
      "type": "event"
    },
    {
      "anonymous": false,
      "inputs": [
        {
          "indexed": true,
          "internalType": "address",
          "name": "implementation",
          "type": "address"
        }
      ],
      "name": "Upgraded",
      "type": "event"
    },
    {
      "inputs": [],
      "name": "ADDRESS_CANNOT_BE_ZERO",
      "outputs": [
        {
          "internalType": "string",
          "name": "",
          "type": "string"
        }
      ],
      "stateMutability": "view",
      "type": "function"
    },
    {
      "inputs": [],
      "name": "DEFAULT_ADMIN_ROLE",
      "outputs": [
        {
          "internalType": "bytes32",
          "name": "",
          "type": "bytes32"
        }
      ],
      "stateMutability": "view",
      "type": "function"
    },
    {
      "inputs": [],
      "name": "MARKET_CLOSED",
      "outputs": [
        {
          "internalType": "string",
          "name": "",
          "type": "string"
        }
      ],
      "stateMutability": "view",
      "type": "function"
    },
    {
      "inputs": [],
      "name": "MINTER_ROLE",
      "outputs": [
        {
          "internalType": "bytes32",
          "name": "",
          "type": "bytes32"
        }
      ],
      "stateMutability": "view",
      "type": "function"
    },
    {
      "inputs": [],
      "name": "NOT_ENOUGH_AUSD",
      "outputs": [
        {
          "internalType": "string",
          "name": "",
          "type": "string"
        }
      ],
      "stateMutability": "view",
      "type": "function"
    },
    {
      "inputs": [],
      "name": "NOT_VALID_TOKEN_ADDRESS",
      "outputs": [
        {
          "internalType": "string",
          "name": "",
          "type": "string"
        }
      ],
      "stateMutability": "view",
      "type": "function"
    },
    {
      "inputs": [],
      "name": "ONLY_AUSD_CAN_CALL_ME",
      "outputs": [
        {
          "internalType": "string",
          "name": "",
          "type": "string"
        }
      ],
      "stateMutability": "view",
      "type": "function"
    },
    {
      "inputs": [],
      "name": "ONLY_SEND_TO_AUSD",
      "outputs": [
        {
          "internalType": "string",
          "name": "",
          "type": "string"
        }
      ],
      "stateMutability": "view",
      "type": "function"
    },
    {
      "inputs": [],
      "name": "PAUSER_ROLE",
      "outputs": [
        {
          "internalType": "bytes32",
          "name": "",
          "type": "bytes32"
        }
      ],
      "stateMutability": "view",
      "type": "function"
    },
    {
      "inputs": [],
      "name": "QUANTITY_MORE_THEN_BALANCE",
      "outputs": [
        {
          "internalType": "string",
          "name": "",
          "type": "string"
        }
      ],
      "stateMutability": "view",
      "type": "function"
    },
    {
      "inputs": [],
      "name": "SYMBOL_CANNOT_BE_EMPTY",
      "outputs": [
        {
          "internalType": "string",
          "name": "",
          "type": "string"
        }
      ],
      "stateMutability": "view",
      "type": "function"
    },
    {
      "inputs": [],
      "name": "TOKEN_ALREADY_EXISTS",
      "outputs": [
        {
          "internalType": "string",
          "name": "",
          "type": "string"
        }
      ],
      "stateMutability": "view",
      "type": "function"
    },
    {
      "inputs": [],
      "name": "TOKEN_NAME",
      "outputs": [
        {
          "internalType": "string",
          "name": "",
          "type": "string"
        }
      ],
      "stateMutability": "view",
      "type": "function"
    },
    {
      "inputs": [],
      "name": "UPGRADER_ROLE",
      "outputs": [
        {
          "internalType": "bytes32",
          "name": "",
          "type": "bytes32"
        }
      ],
      "stateMutability": "view",
      "type": "function"
    },
    {
      "inputs": [],
      "name": "aUsdContract",
      "outputs": [
        {
          "internalType": "contract aUSD",
          "name": "",
          "type": "address"
        }
      ],
      "stateMutability": "view",
      "type": "function"
    },
    {
      "inputs": [
        {
          "internalType": "address",
          "name": "walletAddress",
          "type": "address"
        },
        {
          "internalType": "address",
          "name": "tokenAddress",
          "type": "address"
        },
        {
          "internalType": "uint256",
          "name": "amount",
          "type": "uint256"
        },
        {
          "internalType": "address",
          "name": "spender",
          "type": "address"
        }
      ],
      "name": "buyWithAUsd",
      "outputs": [],
      "stateMutability": "nonpayable",
      "type": "function"
    },
    {
      "inputs": [
        {
          "internalType": "string",
          "name": "symbol",
          "type": "string"
        }
      ],
      "name": "createToken",
      "outputs": [
        {
          "internalType": "contract SecurityToken",
          "name": "",
          "type": "address"
        }
      ],
      "stateMutability": "nonpayable",
      "type": "function"
    },
    {
      "inputs": [
        {
          "internalType": "bytes32",
          "name": "role",
          "type": "bytes32"
        }
      ],
      "name": "getRoleAdmin",
      "outputs": [
        {
          "internalType": "bytes32",
          "name": "",
          "type": "bytes32"
        }
      ],
      "stateMutability": "view",
      "type": "function"
    },
    {
      "inputs": [
        {
          "internalType": "string",
          "name": "symbol",
          "type": "string"
        }
      ],
      "name": "getSecurityToken",
      "outputs": [
        {
          "internalType": "address",
          "name": "",
          "type": "address"
        }
      ],
      "stateMutability": "view",
      "type": "function"
    },
    {
      "inputs": [
        {
          "internalType": "address",
          "name": "recipient",
          "type": "address"
        }
      ],
      "name": "grantMintAndBurnRole",
      "outputs": [],
      "stateMutability": "nonpayable",
      "type": "function"
    },
    {
      "inputs": [
        {
          "internalType": "bytes32",
          "name": "role",
          "type": "bytes32"
        },
        {
          "internalType": "address",
          "name": "account",
          "type": "address"
        }
      ],
      "name": "grantRole",
      "outputs": [],
      "stateMutability": "nonpayable",
      "type": "function"
    },
    {
      "inputs": [
        {
          "internalType": "bytes32",
          "name": "role",
          "type": "bytes32"
        },
        {
          "internalType": "address",
          "name": "account",
          "type": "address"
        }
      ],
      "name": "hasRole",
      "outputs": [
        {
          "internalType": "bool",
          "name": "",
          "type": "bool"
        }
      ],
      "stateMutability": "view",
      "type": "function"
    },
    {
      "inputs": [],
      "name": "initialize",
      "outputs": [],
      "stateMutability": "nonpayable",
      "type": "function"
    },
    {
      "inputs": [],
      "name": "kycContract",
      "outputs": [
        {
          "internalType": "contract KYC",
          "name": "",
          "type": "address"
        }
      ],
      "stateMutability": "view",
      "type": "function"
    },
    {
      "inputs": [],
      "name": "marketCalendarContract",
      "outputs": [
        {
          "internalType": "contract MarketCalendar",
          "name": "",
          "type": "address"
        }
      ],
      "stateMutability": "view",
      "type": "function"
    },
    {
      "inputs": [
        {
          "internalType": "address",
          "name": "recipient",
          "type": "address"
        },
        {
          "internalType": "string",
          "name": "symbol",
          "type": "string"
        },
        {
          "internalType": "uint256",
          "name": "tsl",
          "type": "uint256"
        },
        {
          "internalType": "uint256",
          "name": "filledQty",
          "type": "uint256"
        },
        {
          "internalType": "uint256",
          "name": "filledAvgPrice",
          "type": "uint256"
        },
        {
          "internalType": "string",
          "name": "side",
          "type": "string"
        },
        {
          "internalType": "uint256",
          "name": "filledAt",
          "type": "uint256"
        },
        {
          "internalType": "uint256",
          "name": "commission",
          "type": "uint256"
        },
        {
          "internalType": "uint256",
          "name": "aUsdBalance",
          "type": "uint256"
        },
        {
          "internalType": "address",
          "name": "spender",
          "type": "address"
        }
      ],
      "name": "orderExecuted",
      "outputs": [],
      "stateMutability": "nonpayable",
      "type": "function"
    },
    {
      "inputs": [
        {
          "internalType": "address",
          "name": "recipient",
          "type": "address"
        },
        {
          "internalType": "string",
          "name": "symbol",
          "type": "string"
        },
        {
          "internalType": "uint256",
          "name": "buyingPower",
          "type": "uint256"
        },
        {
          "internalType": "string",
          "name": "message",
          "type": "string"
        },
        {
          "internalType": "address",
          "name": "spender",
          "type": "address"
        }
      ],
      "name": "orderFailed",
      "outputs": [],
      "stateMutability": "nonpayable",
      "type": "function"
    },
    {
      "inputs": [],
      "name": "pause",
      "outputs": [],
      "stateMutability": "nonpayable",
      "type": "function"
    },
    {
      "inputs": [],
      "name": "paused",
      "outputs": [
        {
          "internalType": "bool",
          "name": "",
          "type": "bool"
        }
      ],
      "stateMutability": "view",
      "type": "function"
    },
    {
      "inputs": [],
      "name": "proxiableUUID",
      "outputs": [
        {
          "internalType": "bytes32",
          "name": "",
          "type": "bytes32"
        }
      ],
      "stateMutability": "view",
      "type": "function"
    },
    {
      "inputs": [
        {
          "internalType": "bytes32",
          "name": "role",
          "type": "bytes32"
        },
        {
          "internalType": "address",
          "name": "account",
          "type": "address"
        }
      ],
      "name": "renounceRole",
      "outputs": [],
      "stateMutability": "nonpayable",
      "type": "function"
    },
    {
      "inputs": [
        {
          "internalType": "address",
          "name": "recipient",
          "type": "address"
        }
      ],
      "name": "revokeMintAndBurnRole",
      "outputs": [],
      "stateMutability": "nonpayable",
      "type": "function"
    },
    {
      "inputs": [
        {
          "internalType": "bytes32",
          "name": "role",
          "type": "bytes32"
        },
        {
          "internalType": "address",
          "name": "account",
          "type": "address"
        }
      ],
      "name": "revokeRole",
      "outputs": [],
      "stateMutability": "nonpayable",
      "type": "function"
    },
    {
      "inputs": [
        {
          "internalType": "string",
          "name": "",
          "type": "string"
        }
      ],
      "name": "securityTokens",
      "outputs": [
        {
          "internalType": "address",
          "name": "",
          "type": "address"
        }
      ],
      "stateMutability": "view",
      "type": "function"
    },
    {
      "inputs": [
        {
          "internalType": "address",
          "name": "walletAddress",
          "type": "address"
        },
        {
          "internalType": "address",
          "name": "aUsdAddress",
          "type": "address"
        },
        {
          "internalType": "string",
          "name": "symbol",
          "type": "string"
        },
        {
          "internalType": "uint256",
          "name": "quantity",
          "type": "uint256"
        },
        {
          "internalType": "address",
          "name": "spender",
          "type": "address"
        }
      ],
      "name": "sellSecurityToken",
      "outputs": [],
      "stateMutability": "nonpayable",
      "type": "function"
    },
    {
      "inputs": [
        {
          "internalType": "contract aUSD",
          "name": "aUsdAddress",
          "type": "address"
        },
        {
          "internalType": "contract KYC",
          "name": "kycAddress",
          "type": "address"
        },
        {
          "internalType": "contract MarketCalendar",
          "name": "marketCalendarAddress",
          "type": "address"
        }
      ],
      "name": "setAddresses",
      "outputs": [],
      "stateMutability": "nonpayable",
      "type": "function"
    },
    {
      "inputs": [
        {
          "internalType": "bytes4",
          "name": "interfaceId",
          "type": "bytes4"
        }
      ],
      "name": "supportsInterface",
      "outputs": [
        {
          "internalType": "bool",
          "name": "",
          "type": "bool"
        }
      ],
      "stateMutability": "view",
      "type": "function"
    },
    {
      "inputs": [],
      "name": "unpause",
      "outputs": [],
      "stateMutability": "nonpayable",
      "type": "function"
    },
    {
      "inputs": [
        {
          "internalType": "address",
          "name": "newImplementation",
          "type": "address"
        }
      ],
      "name": "upgradeTo",
      "outputs": [],
      "stateMutability": "nonpayable",
      "type": "function"
    },
    {
      "inputs": [
        {
          "internalType": "address",
          "name": "newImplementation",
          "type": "address"
        },
        {
          "internalType": "bytes",
          "name": "data",
          "type": "bytes"
        }
      ],
      "name": "upgradeToAndCall",
      "outputs": [],
      "stateMutability": "payable",
      "type": "function"
    }
  ],
  "bytecode": "0x60a0604052306080523480156200001557600080fd5b50600054610100900460ff1615808015620000375750600054600160ff909116105b8062000067575062000054306200014160201b620020f41760201c565b15801562000067575060005460ff166001145b620000cf5760405162461bcd60e51b815260206004820152602e60248201527f496e697469616c697a61626c653a20636f6e747261637420697320616c72656160448201526d191e481a5b9a5d1a585b1a5e995960921b606482015260840160405180910390fd5b6000805460ff191660011790558015620000f3576000805461ff0019166101001790555b80156200013a576000805461ff0019169055604051600181527f7f26b83ff96e1f2b6a682f133852f6798a09c465da95921460cefb38474024989060200160405180910390a15b5062000150565b6001600160a01b03163b151590565b60805161496c620001966000396000818161111c015281816111b4015281816114f70152818161158f0152818161168d015281816122c4015261235c015261496c6000f3fe608060405260043610620002f35760003560e01c8063629bc155116200018b578063a217fddf11620000db578063e63ab1e91162000089578063f1935fd4116200006c578063f1935fd414620009d8578063f72c0d8b1462000a23578063fcca64041462000a5957600080fd5b8063e63ab1e9146200097d578063ee02eab114620009b357600080fd5b8063d539139311620000be578063d539139314620008dc578063d547741f1462000912578063da48f4ad146200093757600080fd5b8063a217fddf14620008a0578063a82df14214620008b757600080fd5b8063835d9c58116200013957806385b38eed116200011c57806385b38eed146200080e57806391d1485414620008335780639d81f9e1146200087d57600080fd5b8063835d9c5814620007de5780638456cb5914620007f657600080fd5b80637989ad68116200016e5780637989ad6814620007565780637cfb3d7114620007a15780638129fc1c14620007c657600080fd5b8063629bc155146200070e5780636d3123eb146200073357600080fd5b806336568abe11620002475780634f1ef28611620001f557806352d1902d11620001d857806352d1902d14620006b95780635c975abb14620006d15780635ff53fc414620006eb57600080fd5b80634f1ef28614620006575780634ffcfbe1146200066e57600080fd5b80633afea586116200022a5780633afea58614620005b65780633f4ba83a146200060157806345576f94146200061957600080fd5b806336568abe146200056c5780633659cfe6146200059157600080fd5b80631bc9905111620002a55780632f2ff15d11620002885780632f2ff15d14620004d75780633623ce9014620004fc578063363bf964146200054757600080fd5b80631bc990511462000449578063248a9ca3146200049457600080fd5b80630b317e7911620002da5780630b317e79146200038c5780631882140014620003b357806319b4881a14620003fe57600080fd5b806301ffc9a714620002f857806307d725da1462000332575b600080fd5b3480156200030557600080fd5b506200031d6200031736600462002deb565b62000a7e565b60405190151581526020015b60405180910390f35b3480156200033f57600080fd5b506200037d6040518060400160405280601081526020017f4d61726b657420697320636c6f7365640000000000000000000000000000000081525081565b60405162000329919062002e83565b3480156200039957600080fd5b50620003b1620003ab36600462002ebb565b62000b18565b005b348015620003c057600080fd5b506200037d6040518060400160405280601581526020017f4c696d696e616c2e6d61726b65742073796d626f6c000000000000000000000081525081565b3480156200040b57600080fd5b506200037d6040518060400160405280601a81526020017f596f7520646f6e2774206861766520656e6f756768206155534400000000000081525081565b3480156200045657600080fd5b506200037d6040518060400160405280601681526020017f53796d626f6c2063616e6e6f7420626520656d7074790000000000000000000081525081565b348015620004a157600080fd5b50620004c8620004b336600462002f15565b60009081526097602052604090206001015490565b60405190815260200162000329565b348015620004e457600080fd5b50620003b1620004f636600462002f2f565b62000ff7565b3480156200050957600080fd5b506200037d6040518060400160405280601d81526020017f536563757269747920746f6b656e20616c72656164792065786973747300000081525081565b3480156200055457600080fd5b50620003b16200056636600462002f62565b62001025565b3480156200057957600080fd5b50620003b16200058b36600462002f2f565b62001082565b3480156200059e57600080fd5b50620003b1620005b036600462002fb4565b62001112565b348015620005c357600080fd5b506200037d6040518060400160405280601681526020017f416464726573732063616e6e6f74206265207a65726f0000000000000000000081525081565b3480156200060e57600080fd5b50620003b1620012b8565b3480156200062657600080fd5b506200063e62000638366004620030af565b620012ee565b6040516001600160a01b03909116815260200162000329565b620003b162000668366004620030f0565b620014ed565b3480156200067b57600080fd5b506200037d6040518060400160405280601f81526020017f596f752063616e206f6e6c792073656e6420746f206155534420746f6b656e0081525081565b348015620006c657600080fd5b50620004c862001680565b348015620006de57600080fd5b5060335460ff166200031d565b348015620006f857600080fd5b5061012d546200063e906001600160a01b031681565b3480156200071b57600080fd5b506200063e6200072d366004620030af565b62001747565b3480156200074057600080fd5b5061012e546200063e906001600160a01b031681565b3480156200076357600080fd5b506200037d6040518060400160405280601f81526020017f54686973206973206e6f742076616c696420746f6b656e20616464726573730081525081565b348015620007ae57600080fd5b50620003b1620007c036600462002fb4565b6200177b565b348015620007d357600080fd5b50620003b1620017b4565b348015620007eb57600080fd5b506200037d62001981565b3480156200080357600080fd5b50620003b16200199e565b3480156200081b57600080fd5b50620003b16200082d36600462002fb4565b620019d4565b3480156200084057600080fd5b506200031d6200085236600462002f2f565b60009182526097602090815260408084206001600160a01b0393909316845291905290205460ff1690565b3480156200088a57600080fd5b5061012f546200063e906001600160a01b031681565b348015620008ad57600080fd5b50620004c8600081565b348015620008c457600080fd5b50620003b1620008d63660046200315b565b62001a0d565b348015620008e957600080fd5b50620004c87f9f2df0fed2c77648de5860a4cc508cd0818c85b8b8a1ab4ceeef8d981c8956a681565b3480156200091f57600080fd5b50620003b16200093136600462002f2f565b62001db2565b3480156200094457600080fd5b506200063e62000956366004620030af565b8051602081830181018051610130825292820191909301209152546001600160a01b031681565b3480156200098a57600080fd5b50620004c87f65d7a28e3265b37a6474929f336521b332c1681b933f6cb9f3376673440d862a81565b348015620009c057600080fd5b50620003b1620009d2366004620031e6565b62001ddb565b348015620009e557600080fd5b506200037d6040518060400160405280601e81526020017f4f6e6c79206155534420636f6e74726163742063616e2063616c6c206d65000081525081565b34801562000a3057600080fd5b50620004c87f189ab7a9244df0848122154315af71fe140f3db0fe014031783b0946b8c9d2e381565b34801562000a6657600080fd5b50620003b162000a78366004620032b2565b62002075565b60007fffffffff0000000000000000000000000000000000000000000000000000000082167f7965db0b00000000000000000000000000000000000000000000000000000000148062000b1257507f01ffc9a7000000000000000000000000000000000000000000000000000000007fffffffff000000000000000000000000000000000000000000000000000000008316145b92915050565b62000b2262002103565b61012d5460408051808201909152601e81527f4f6e6c79206155534420636f6e74726163742063616e2063616c6c206d6500006020820152906001600160a01b0316331462000b8f5760405162461bcd60e51b815260040162000b86919062002e83565b60405180910390fd5b5061012f60009054906101000a90046001600160a01b03166001600160a01b031663d4ce85f36040518163ffffffff1660e01b8152600401602060405180830381865afa15801562000be5573d6000803e3d6000fd5b505050506040513d601f19601f8201168201806040525081019062000c0b919062003344565b6040518060400160405280601081526020017f4d61726b657420697320636c6f736564000000000000000000000000000000008152509062000c625760405162461bcd60e51b815260040162000b86919062002e83565b5061012d546040517f70a082310000000000000000000000000000000000000000000000000000000081526001600160a01b03868116600483015260009216906370a0823190602401602060405180830381865afa15801562000cc9573d6000803e3d6000fd5b505050506040513d601f19601f8201168201806040525081019062000cef919062003368565b9050828110156040518060400160405280601a81526020017f596f7520646f6e2774206861766520656e6f75676820615553440000000000008152509062000d4c5760405162461bcd60e51b815260040162000b86919062002e83565b5061012e546040517f8b1b925f0000000000000000000000000000000000000000000000000000000081526001600160a01b0387811660048301526000921690638b1b925f90602401600060405180830381865afa15801562000db3573d6000803e3d6000fd5b505050506040513d6000823e601f3d908101601f1916820160405262000ddd919081019062003382565b90506000859050306001600160a01b0316816001600160a01b0316638da5cb5b6040518163ffffffff1660e01b8152600401602060405180830381865afa15801562000e2d573d6000803e3d6000fd5b505050506040513d601f19601f8201168201806040525081019062000e539190620033f9565b6001600160a01b0316146040518060400160405280601f81526020017f54686973206973206e6f742076616c696420746f6b656e2061646472657373008152509062000eb45760405162461bcd60e51b815260040162000b86919062002e83565b506000816001600160a01b03166395d89b416040518163ffffffff1660e01b8152600401600060405180830381865afa15801562000ef6573d6000803e3d6000fd5b505050506040513d6000823e601f3d908101601f1916820160405262000f20919081019062003382565b90506001600160a01b03851662000f35573094505b7f7e5d12bbde79004142810629c5e42ea48221200745f25bf60cfcc2e5d0f2db7d888785848b8a60405162000f709695949392919062003419565b60405180910390a161012d546001600160a01b0316635b4529898962000f9789886200348a565b60016040518463ffffffff1660e01b815260040162000fb993929190620034a0565b600060405180830381600087803b15801562000fd457600080fd5b505af115801562000fe9573d6000803e3d6000fd5b505050505050505050505050565b60008281526097602052604090206001015462001014816200215a565b62001020838362002166565b505050565b600062001032816200215a565b5061012d80546001600160a01b0394851673ffffffffffffffffffffffffffffffffffffffff199182161790915561012e80549385169382169390931790925561012f8054919093169116179055565b6001600160a01b0381163314620011025760405162461bcd60e51b815260206004820152602f60248201527f416363657373436f6e74726f6c3a2063616e206f6e6c792072656e6f756e636560448201527f20726f6c657320666f722073656c660000000000000000000000000000000000606482015260840162000b86565b6200110e82826200220a565b5050565b6001600160a01b037f0000000000000000000000000000000000000000000000000000000000000000163003620011b25760405162461bcd60e51b815260206004820152602c60248201527f46756e6374696f6e206d7573742062652063616c6c6564207468726f7567682060448201527f64656c656761746563616c6c0000000000000000000000000000000000000000606482015260840162000b86565b7f00000000000000000000000000000000000000000000000000000000000000006001600160a01b03166200120e7f360894a13ba1a3210667c828492db98dca3e2076cc3735a920a3ca505d382bbc546001600160a01b031690565b6001600160a01b0316146200128c5760405162461bcd60e51b815260206004820152602c60248201527f46756e6374696f6e206d7573742062652063616c6c6564207468726f7567682060448201527f6163746976652070726f78790000000000000000000000000000000000000000606482015260840162000b86565b62001297816200228e565b60408051600080825260208201909252620012b5918391906200243f565b50565b7f65d7a28e3265b37a6474929f336521b332c1681b933f6cb9f3376673440d862a620012e4816200215a565b620012b5620025eb565b6000620012fa62002103565b815160408051808201909152601681527f53796d626f6c2063616e6e6f7420626520656d70747900000000000000000000602082015290620013515760405162461bcd60e51b815260040162000b86919062002e83565b5060006001600160a01b031661013083604051620013709190620034e4565b90815260408051918290036020908101832054838301909252601d83527f536563757269747920746f6b656e20616c7265616479206578697374730000009083015290916001600160a01b0390911614620013e05760405162461bcd60e51b815260040162000b86919062002e83565b5060006040518060400160405280601581526020017f4c696d696e616c2e6d61726b65742073796d626f6c000000000000000000000081525083604051620014289062002ddd565b6200143592919062003502565b604051809103906000f08015801562001452573d6000803e3d6000fd5b509050600081905080610130856040516200146e9190620034e4565b90815260405190819003602001812080546001600160a01b039390931673ffffffffffffffffffffffffffffffffffffffff19909316929092179091557f7c56d5eff73d004b4d80f35d05a7e9a2429df1bb9544be59c859d049e2f449fb90620014dc90839087906200352b565b60405180910390a15090505b919050565b6001600160a01b037f00000000000000000000000000000000000000000000000000000000000000001630036200158d5760405162461bcd60e51b815260206004820152602c60248201527f46756e6374696f6e206d7573742062652063616c6c6564207468726f7567682060448201527f64656c656761746563616c6c0000000000000000000000000000000000000000606482015260840162000b86565b7f00000000000000000000000000000000000000000000000000000000000000006001600160a01b0316620015e97f360894a13ba1a3210667c828492db98dca3e2076cc3735a920a3ca505d382bbc546001600160a01b031690565b6001600160a01b031614620016675760405162461bcd60e51b815260206004820152602c60248201527f46756e6374696f6e206d7573742062652063616c6c6564207468726f7567682060448201527f6163746976652070726f78790000000000000000000000000000000000000000606482015260840162000b86565b62001672826200228e565b6200110e828260016200243f565b6000306001600160a01b037f00000000000000000000000000000000000000000000000000000000000000001614620017225760405162461bcd60e51b815260206004820152603860248201527f555550535570677261646561626c653a206d757374206e6f742062652063616c60448201527f6c6564207468726f7567682064656c656761746563616c6c0000000000000000606482015260840162000b86565b507f360894a13ba1a3210667c828492db98dca3e2076cc3735a920a3ca505d382bbc90565b6000610130826040516200175c9190620034e4565b908152604051908190036020019020546001600160a01b031692915050565b600062001788816200215a565b6200110e7f9f2df0fed2c77648de5860a4cc508cd0818c85b8b8a1ab4ceeef8d981c8956a68362000ff7565b600054610100900460ff1615808015620017d55750600054600160ff909116105b80620017f15750303b158015620017f1575060005460ff166001145b620018655760405162461bcd60e51b815260206004820152602e60248201527f496e697469616c697a61626c653a20636f6e747261637420697320616c72656160448201527f647920696e697469616c697a6564000000000000000000000000000000000000606482015260840162000b86565b6000805460ff19166001179055801562001889576000805461ff0019166101001790555b620018936200263f565b6200189d620026c8565b620018a7620026c8565b620018b460003362002166565b620018e07f65d7a28e3265b37a6474929f336521b332c1681b933f6cb9f3376673440d862a3362002166565b6200190c7f9f2df0fed2c77648de5860a4cc508cd0818c85b8b8a1ab4ceeef8d981c8956a63362002166565b620019387f189ab7a9244df0848122154315af71fe140f3db0fe014031783b0946b8c9d2e33362002166565b8015620012b5576000805461ff0019169055604051600181527f7f26b83ff96e1f2b6a682f133852f6798a09c465da95921460cefb38474024989060200160405180910390a150565b604051806060016040528060268152602001620048ea6026913981565b7f65d7a28e3265b37a6474929f336521b332c1681b933f6cb9f3376673440d862a620019ca816200215a565b620012b562002747565b6000620019e1816200215a565b6200110e7f9f2df0fed2c77648de5860a4cc508cd0818c85b8b8a1ab4ceeef8d981c8956a68362001db2565b62001a1762002103565b61012d5460408051808201909152601f81527f596f752063616e206f6e6c792073656e6420746f206155534420746f6b656e006020820152906001600160a01b0386811691161462001a7e5760405162461bcd60e51b815260040162000b86919062002e83565b5061012f60009054906101000a90046001600160a01b03166001600160a01b031663d4ce85f36040518163ffffffff1660e01b8152600401602060405180830381865afa15801562001ad4573d6000803e3d6000fd5b505050506040513d601f19601f8201168201806040525081019062001afa919062003344565b6040518060400160405280601081526020017f4d61726b657420697320636c6f736564000000000000000000000000000000008152509062001b515760405162461bcd60e51b815260040162000b86919062002e83565b503362001b5e8462001747565b6001600160a01b0316146040518060400160405280601f81526020017f54686973206973206e6f742076616c696420746f6b656e2061646472657373008152509062001bbf5760405162461bcd60e51b815260040162000b86919062002e83565b5061012e546040517f8b1b925f0000000000000000000000000000000000000000000000000000000081526001600160a01b0387811660048301526000921690638b1b925f90602401600060405180830381865afa15801562001c26573d6000803e3d6000fd5b505050506040513d6000823e601f3d908101601f1916820160405262001c50919081019062003382565b6040517f70a082310000000000000000000000000000000000000000000000000000000081526001600160a01b0388166004820152909150339060009082906370a0823190602401602060405180830381865afa15801562001cb6573d6000803e3d6000fd5b505050506040513d601f19601f8201168201806040525081019062001cdc919062003368565b905084811015604051806060016040528060268152602001620048ea602691399062001d1d5760405162461bcd60e51b815260040162000b86919062002e83565b506001600160a01b03841662001d31573093505b7f4341e54645ad9755ed9779b519412751d6965340ce2953951d20ebbfcbdf340b83898989898960405162001d6c969594939291906200354f565b60405180910390a16001600160a01b038216635b4529898962001d9088856200348a565b60026040518463ffffffff1660e01b815260040162000fb993929190620034a0565b60008281526097602052604090206001015462001dcf816200215a565b6200102083836200220a565b62001de562002103565b7f9f2df0fed2c77648de5860a4cc508cd0818c85b8b8a1ab4ceeef8d981c8956a662001e11816200215a565b60408051808201909152601681527f416464726573732063616e6e6f74206265207a65726f0000000000000000000060208201526001600160a01b038c1662001e6f5760405162461bcd60e51b815260040162000b86919062002e83565b506000806101308c60405162001e869190620034e4565b908152604051908190036020019020546001600160a01b031690508062001f33576040517f45576f9400000000000000000000000000000000000000000000000000000000815230906345576f949062001ee5908f9060040162002e83565b6020604051808303816000875af115801562001f05573d6000803e3d6000fd5b505050506040513d601f19601f8201168201806040525081019062001f2b9190620033f9565b915062001f37565b8091505b816001600160a01b0316635b4529898e8d60036040518463ffffffff1660e01b815260040162001f6a93929190620034a0565b600060405180830381600087803b15801562001f8557600080fd5b505af115801562001f9a573d6000803e3d6000fd5b5050505061012d60009054906101000a90046001600160a01b03166001600160a01b0316635b4529898e8760036040518463ffffffff1660e01b815260040162001fe793929190620034a0565b600060405180830381600087803b1580156200200257600080fd5b505af115801562002017573d6000803e3d6000fd5b505050507f63d96cc2b8bb5bdb5a21698ccf602b5d04799801cbaface9d322d180a38c55b48d8d8d8d8d8d8d8d8d8d6040516200205e9a99989796959493929190620035ad565b60405180910390a150505050505050505050505050565b6200207f62002103565b7f9f2df0fed2c77648de5860a4cc508cd0818c85b8b8a1ab4ceeef8d981c8956a6620020ab816200215a565b7fb119d18d6fd69df5ab079683b30b759ed526ca02797650de9c42f2e33c6a57e68686868686604051620020e49594939291906200362a565b60405180910390a1505050505050565b6001600160a01b03163b151590565b60335460ff1615620021585760405162461bcd60e51b815260206004820152601060248201527f5061757361626c653a2070617573656400000000000000000000000000000000604482015260640162000b86565b565b620012b5813362002787565b60008281526097602090815260408083206001600160a01b038516845290915290205460ff166200110e5760008281526097602090815260408083206001600160a01b03851684529091529020805460ff19166001179055620021c63390565b6001600160a01b0316816001600160a01b0316837f2f8788117e7eff1d82e926ec794901d17c78024a50270940304540a733656f0d60405160405180910390a45050565b60008281526097602090815260408083206001600160a01b038516845290915290205460ff16156200110e5760008281526097602090815260408083206001600160a01b0385168085529252808320805460ff1916905551339285917ff6391f5c32d9c69d2a47ea670b442974b53935d1edc7fd64eb21e047a839171b9190a45050565b7f189ab7a9244df0848122154315af71fe140f3db0fe014031783b0946b8c9d2e3620022ba816200215a565b6001600160a01b037f00000000000000000000000000000000000000000000000000000000000000001630036200235a5760405162461bcd60e51b815260206004820152602c60248201527f46756e6374696f6e206d7573742062652063616c6c6564207468726f7567682060448201527f64656c656761746563616c6c0000000000000000000000000000000000000000606482015260840162000b86565b7f00000000000000000000000000000000000000000000000000000000000000006001600160a01b0316620023b67f360894a13ba1a3210667c828492db98dca3e2076cc3735a920a3ca505d382bbc546001600160a01b031690565b6001600160a01b031614620024345760405162461bcd60e51b815260206004820152602c60248201527f46756e6374696f6e206d7573742062652063616c6c6564207468726f7567682060448201527f6163746976652070726f78790000000000000000000000000000000000000000606482015260840162000b86565b6200110e8262002805565b7f4910fdfa16fed3260ed0e7147f7cc6da11a60208b5b9406d12a635614ffd91435460ff16156200247557620010208362002847565b826001600160a01b03166352d1902d6040518163ffffffff1660e01b8152600401602060405180830381865afa925050508015620024d2575060408051601f3d908101601f19168201909252620024cf9181019062003368565b60015b620025465760405162461bcd60e51b815260206004820152602e60248201527f45524331393637557067726164653a206e657720696d706c656d656e7461746960448201527f6f6e206973206e6f742055555053000000000000000000000000000000000000606482015260840162000b86565b7f360894a13ba1a3210667c828492db98dca3e2076cc3735a920a3ca505d382bbc8114620025dd5760405162461bcd60e51b815260206004820152602960248201527f45524331393637557067726164653a20756e737570706f727465642070726f7860448201527f6961626c65555549440000000000000000000000000000000000000000000000606482015260840162000b86565b506200102083838362002914565b620025f562002945565b6033805460ff191690557f5db9ee0a495bf2e6ff9c91a7834c1ba4fdd244a5e8aa4e537bd38aeae4b073aa335b6040516001600160a01b03909116815260200160405180910390a1565b600054610100900460ff16620026be5760405162461bcd60e51b815260206004820152602b60248201527f496e697469616c697a61626c653a20636f6e7472616374206973206e6f74206960448201527f6e697469616c697a696e67000000000000000000000000000000000000000000606482015260840162000b86565b6200215862002999565b600054610100900460ff16620021585760405162461bcd60e51b815260206004820152602b60248201527f496e697469616c697a61626c653a20636f6e7472616374206973206e6f74206960448201527f6e697469616c697a696e67000000000000000000000000000000000000000000606482015260840162000b86565b6200275162002103565b6033805460ff191660011790557f62e78cea01bee320cd4e420270b5ea74000d11b0c9f74754ebdbfc544b05a258620026223390565b60008281526097602090815260408083206001600160a01b038516845290915290205460ff166200110e57620027bd8162002a24565b620027ca83602062002a37565b604051602001620027dd9291906200367f565b60408051601f198184030181529082905262461bcd60e51b825262000b869160040162002e83565b620028108162002847565b6040516001600160a01b038216907fbc7cd75a20ee27fd9adebab32041f755214dbc6bffa90cc0225b39da2e5c2d3b90600090a250565b6001600160a01b0381163b620028c65760405162461bcd60e51b815260206004820152602d60248201527f455243313936373a206e657720696d706c656d656e746174696f6e206973206e60448201527f6f74206120636f6e747261637400000000000000000000000000000000000000606482015260840162000b86565b7f360894a13ba1a3210667c828492db98dca3e2076cc3735a920a3ca505d382bbc805473ffffffffffffffffffffffffffffffffffffffff19166001600160a01b0392909216919091179055565b6200291f8362002805565b6000825111806200292d5750805b1562001020576200293f838362002c85565b50505050565b60335460ff16620021585760405162461bcd60e51b815260206004820152601460248201527f5061757361626c653a206e6f7420706175736564000000000000000000000000604482015260640162000b86565b600054610100900460ff1662002a185760405162461bcd60e51b815260206004820152602b60248201527f496e697469616c697a61626c653a20636f6e7472616374206973206e6f74206960448201527f6e697469616c697a696e67000000000000000000000000000000000000000000606482015260840162000b86565b6033805460ff19169055565b606062000b126001600160a01b03831660145b6060600062002a4883600262003704565b62002a5590600262003726565b67ffffffffffffffff81111562002a705762002a7062002fd4565b6040519080825280601f01601f19166020018201604052801562002a9b576020820181803683370190505b5090507f30000000000000000000000000000000000000000000000000000000000000008160008151811062002ad55762002ad56200373c565b60200101907effffffffffffffffffffffffffffffffffffffffffffffffffffffffffffff1916908160001a9053507f78000000000000000000000000000000000000000000000000000000000000008160018151811062002b3b5762002b3b6200373c565b60200101907effffffffffffffffffffffffffffffffffffffffffffffffffffffffffffff1916908160001a905350600062002b7984600262003704565b62002b8690600162003726565b90505b600181111562002c2d577f303132333435363738396162636465660000000000000000000000000000000085600f166010811062002bcb5762002bcb6200373c565b1a60f81b82828151811062002be45762002be46200373c565b60200101907effffffffffffffffffffffffffffffffffffffffffffffffffffffffffffff1916908160001a90535060049490941c9362002c258162003752565b905062002b89565b50831562002c7e5760405162461bcd60e51b815260206004820181905260248201527f537472696e67733a20686578206c656e67746820696e73756666696369656e74604482015260640162000b86565b9392505050565b60606001600160a01b0383163b62002d065760405162461bcd60e51b815260206004820152602660248201527f416464726573733a2064656c65676174652063616c6c20746f206e6f6e2d636f60448201527f6e74726163740000000000000000000000000000000000000000000000000000606482015260840162000b86565b600080846001600160a01b03168460405162002d239190620034e4565b600060405180830381855af49150503d806000811462002d60576040519150601f19603f3d011682016040523d82523d6000602084013e62002d65565b606091505b509150915062002d908282604051806060016040528060278152602001620049106027913962002d99565b95945050505050565b6060831562002daa57508162002c7e565b62002c7e838381511562002dc15781518083602001fd5b8060405162461bcd60e51b815260040162000b86919062002e83565b61117d806200376d83390190565b60006020828403121562002dfe57600080fd5b81357fffffffff000000000000000000000000000000000000000000000000000000008116811462002c7e57600080fd5b60005b8381101562002e4c57818101518382015260200162002e32565b50506000910152565b6000815180845262002e6f81602086016020860162002e2f565b601f01601f19169290920160200192915050565b60208152600062002c7e602083018462002e55565b6001600160a01b0381168114620012b557600080fd5b8035620014e88162002e98565b6000806000806080858703121562002ed257600080fd5b843562002edf8162002e98565b9350602085013562002ef18162002e98565b925060408501359150606085013562002f0a8162002e98565b939692955090935050565b60006020828403121562002f2857600080fd5b5035919050565b6000806040838503121562002f4357600080fd5b82359150602083013562002f578162002e98565b809150509250929050565b60008060006060848603121562002f7857600080fd5b833562002f858162002e98565b9250602084013562002f978162002e98565b9150604084013562002fa98162002e98565b809150509250925092565b60006020828403121562002fc757600080fd5b813562002c7e8162002e98565b634e487b7160e01b600052604160045260246000fd5b604051601f8201601f1916810167ffffffffffffffff8111828210171562003016576200301662002fd4565b604052919050565b600067ffffffffffffffff8211156200303b576200303b62002fd4565b50601f01601f191660200190565b6000620030606200305a846200301e565b62002fea565b90508281528383830111156200307557600080fd5b828260208301376000602084830101529392505050565b600082601f8301126200309e57600080fd5b62002c7e8383356020850162003049565b600060208284031215620030c257600080fd5b813567ffffffffffffffff811115620030da57600080fd5b620030e8848285016200308c565b949350505050565b600080604083850312156200310457600080fd5b8235620031118162002e98565b9150602083013567ffffffffffffffff8111156200312e57600080fd5b8301601f810185136200314057600080fd5b620031518582356020840162003049565b9150509250929050565b600080600080600060a086880312156200317457600080fd5b8535620031818162002e98565b94506020860135620031938162002e98565b9350604086013567ffffffffffffffff811115620031b057600080fd5b620031be888289016200308c565b935050606086013591506080860135620031d88162002e98565b809150509295509295909350565b6000806000806000806000806000806101408b8d0312156200320757600080fd5b620032128b62002eae565b995060208b013567ffffffffffffffff808211156200323057600080fd5b6200323e8e838f016200308c565b9a5060408d0135995060608d0135985060808d0135975060a08d01359150808211156200326a57600080fd5b50620032798d828e016200308c565b95505060c08b0135935060e08b013592506101008b01359150620032a16101208c0162002eae565b90509295989b9194979a5092959850565b600080600080600060a08688031215620032cb57600080fd5b8535620032d88162002e98565b9450602086013567ffffffffffffffff80821115620032f657600080fd5b6200330489838a016200308c565b95506040880135945060608801359150808211156200332257600080fd5b5062003331888289016200308c565b9250506080860135620031d88162002e98565b6000602082840312156200335757600080fd5b8151801515811462002c7e57600080fd5b6000602082840312156200337b57600080fd5b5051919050565b6000602082840312156200339557600080fd5b815167ffffffffffffffff811115620033ad57600080fd5b8201601f81018413620033bf57600080fd5b8051620033d06200305a826200301e565b818152856020838501011115620033e657600080fd5b62002d9082602083016020860162002e2f565b6000602082840312156200340c57600080fd5b815162002c7e8162002e98565b60006001600160a01b03808916835287602084015260c060408401526200344460c084018862002e55565b838103606085015262003458818862002e55565b9582166080850152509290921660a09091015250949350505050565b634e487b7160e01b600052601160045260246000fd5b8181038181111562000b125762000b1262003474565b6001600160a01b0384168152602081018390526060810160078310620034d657634e487b7160e01b600052602160045260246000fd5b826040830152949350505050565b60008251620034f881846020870162002e2f565b9190910192915050565b60408152600062003517604083018562002e55565b828103602084015262002d90818562002e55565b6001600160a01b0383168152604060208201526000620030e8604083018462002e55565b60c0815260006200356460c083018962002e55565b6001600160a01b0380891660208501528088166040850152838203606085015262003590828862002e55565b925085608085015280851660a08501525050979650505050505050565b60006101406001600160a01b03808e168452816020850152620035d38285018e62002e55565b91508b60408501528a606085015289608085015283820360a0850152620035fb828a62002e55565b92508760c08501528660e08501528561010085015280851661012085015250509b9a5050505050505050505050565b60006001600160a01b03808816835260a060208401526200364f60a084018862002e55565b866040850152838103606085015262003669818762002e55565b9250508084166080840152509695505050505050565b7f416363657373436f6e74726f6c3a206163636f756e7420000000000000000000815260008351620036b981601785016020880162002e2f565b7f206973206d697373696e6720726f6c65200000000000000000000000000000006017918401918201528351620036f881602884016020880162002e2f565b01602801949350505050565b600081600019048311821515161562003721576200372162003474565b500290565b8082018082111562000b125762000b1262003474565b634e487b7160e01b600052603260045260246000fd5b60008162003764576200376462003474565b50600019019056fe60806040523480156200001157600080fd5b506040516200117d3803806200117d833981016040819052620000349162000191565b818162000041336200007c565b60046200004f83826200028a565b5060056200005e82826200028a565b5050600680546001600160a01b031916331790555062000356915050565b600080546001600160a01b038381166001600160a01b0319831681178455604051919092169283917f8be0079c531659141344cd1fd0a4f28419497f9722a3daafe3b4186f6b6457e09190a35050565b634e487b7160e01b600052604160045260246000fd5b600082601f830112620000f457600080fd5b81516001600160401b0380821115620001115762000111620000cc565b604051601f8301601f19908116603f011681019082821181831017156200013c576200013c620000cc565b816040528381526020925086838588010111156200015957600080fd5b600091505b838210156200017d57858201830151818301840152908201906200015e565b600093810190920192909252949350505050565b60008060408385031215620001a557600080fd5b82516001600160401b0380821115620001bd57600080fd5b620001cb86838701620000e2565b93506020850151915080821115620001e257600080fd5b50620001f185828601620000e2565b9150509250929050565b600181811c908216806200021057607f821691505b6020821081036200023157634e487b7160e01b600052602260045260246000fd5b50919050565b601f8211156200028557600081815260208120601f850160051c81016020861015620002605750805b601f850160051c820191505b8181101562000281578281556001016200026c565b5050505b505050565b81516001600160401b03811115620002a657620002a6620000cc565b620002be81620002b78454620001fb565b8462000237565b602080601f831160018114620002f65760008415620002dd5750858301515b600019600386901b1c1916600185901b17855562000281565b600085815260208120601f198616915b82811015620003275788860151825594840194600190910190840162000306565b5085821015620003465787850151600019600388901b60f8161c191681555b5050505050600190811b01905550565b610e1780620003666000396000f3fe608060405234801561001057600080fd5b50600436106100f55760003560e01c806370a0823111610097578063a457c2d711610066578063a457c2d7146101eb578063a9059cbb146101fe578063dd62ed3e14610211578063f2fde38b1461024a57600080fd5b806370a0823114610197578063715018a6146101c05780638da5cb5b146101c857806395d89b41146101e357600080fd5b806323b872dd116100d357806323b872dd1461014d578063313ce56714610160578063395093511461016f5780635b4529891461018257600080fd5b806306fdde03146100fa578063095ea7b31461011857806318160ddd1461013b575b600080fd5b61010261025d565b60405161010f9190610bb5565b60405180910390f35b61012b610126366004610beb565b6102ef565b604051901515815260200161010f565b6003545b60405190815260200161010f565b61012b61015b366004610c15565b610309565b6040516012815260200161010f565b61012b61017d366004610beb565b610391565b610195610190366004610c51565b6103d0565b005b61013f6101a5366004610c95565b6001600160a01b031660009081526001602052604090205490565b610195610472565b6000546040516001600160a01b03909116815260200161010f565b610102610486565b61012b6101f9366004610beb565b610495565b61012b61020c366004610beb565b61054f565b61013f61021f366004610cb0565b6001600160a01b03918216600090815260026020908152604080832093909416825291909152205490565b610195610258366004610c95565b6105cb565b60606004805461026c90610ce3565b80601f016020809104026020016040519081016040528092919081815260200182805461029890610ce3565b80156102e55780601f106102ba576101008083540402835291602001916102e5565b820191906000526020600020905b8154815290600101906020018083116102c857829003601f168201915b5050505050905090565b6000336102fd81858561065b565b60019150505b92915050565b6000336103178582856107b3565b6006546001600160a01b031663a82df1428686610332610486565b87866040518663ffffffff1660e01b8152600401610354959493929190610d1d565b600060405180830381600087803b15801561036e57600080fd5b505af1158015610382573d6000803e3d6000fd5b50600198975050505050505050565b3360008181526002602090815260408083206001600160a01b03871684529091528120549091906102fd90829086906103cb908790610d78565b61065b565b6103d8610863565b6001600160a01b0383166000908152600160205260409020548083036103fe5750505050565b8083111561041e57610419846104148386610d8b565b6108bd565b610431565b6104318461042c8584610d8b565b61097e565b7f30244e15ecc10155724345921df69c73800ac2dc40cdb5cb1798bc19dff3edc284848460405161046493929190610d9e565b60405180910390a150505050565b61047a610863565b6104846000610ae9565b565b60606005805461026c90610ce3565b3360008181526002602090815260408083206001600160a01b0387168452909152812054909190838110156105375760405162461bcd60e51b815260206004820152602560248201527f45524332303a2064656372656173656420616c6c6f77616e63652062656c6f7760448201527f207a65726f00000000000000000000000000000000000000000000000000000060648201526084015b60405180910390fd5b610544828686840361065b565b506001949350505050565b6006546000906001600160a01b031663a82df142338561056d610486565b8660006040518663ffffffff1660e01b8152600401610590959493929190610d1d565b600060405180830381600087803b1580156105aa57600080fd5b505af11580156105be573d6000803e3d6000fd5b5060019695505050505050565b6105d3610863565b6001600160a01b03811661064f5760405162461bcd60e51b815260206004820152602660248201527f4f776e61626c653a206e6577206f776e657220697320746865207a65726f206160448201527f6464726573730000000000000000000000000000000000000000000000000000606482015260840161052e565b61065881610ae9565b50565b6001600160a01b0383166106d65760405162461bcd60e51b8152602060048201526024808201527f45524332303a20617070726f76652066726f6d20746865207a65726f2061646460448201527f7265737300000000000000000000000000000000000000000000000000000000606482015260840161052e565b6001600160a01b0382166107525760405162461bcd60e51b815260206004820152602260248201527f45524332303a20617070726f766520746f20746865207a65726f20616464726560448201527f7373000000000000000000000000000000000000000000000000000000000000606482015260840161052e565b6001600160a01b0383811660008181526002602090815260408083209487168084529482529182902085905590518481527f8c5be1e5ebec7d5bd14f71427d1e84f3dd0314c0f7b2291e5b200ac8c7c3b925910160405180910390a3505050565b6001600160a01b038381166000908152600260209081526040808320938616835292905220547fffffffffffffffffffffffffffffffffffffffffffffffffffffffffffffffff811461085d57818110156108505760405162461bcd60e51b815260206004820152601d60248201527f45524332303a20696e73756666696369656e7420616c6c6f77616e6365000000604482015260640161052e565b61085d848484840361065b565b50505050565b6000546001600160a01b031633146104845760405162461bcd60e51b815260206004820181905260248201527f4f776e61626c653a2063616c6c6572206973206e6f7420746865206f776e6572604482015260640161052e565b6001600160a01b0382166109135760405162461bcd60e51b815260206004820152601f60248201527f45524332303a206d696e7420746f20746865207a65726f206164647265737300604482015260640161052e565b80600360008282546109259190610d78565b90915550506001600160a01b0382166000818152600160209081526040808320805486019055518481527fddf252ad1be2c89b69c2b068fc378daa952ba7f163c4a11628f55a4df523b3ef910160405180910390a35050565b6001600160a01b0382166109fa5760405162461bcd60e51b815260206004820152602160248201527f45524332303a206275726e2066726f6d20746865207a65726f2061646472657360448201527f7300000000000000000000000000000000000000000000000000000000000000606482015260840161052e565b6001600160a01b03821660009081526001602052604090205481811015610a895760405162461bcd60e51b815260206004820152602260248201527f45524332303a206275726e20616d6f756e7420657863656564732062616c616e60448201527f6365000000000000000000000000000000000000000000000000000000000000606482015260840161052e565b6001600160a01b03831660008181526001602090815260408083208686039055600380548790039055518581529192917fddf252ad1be2c89b69c2b068fc378daa952ba7f163c4a11628f55a4df523b3ef910160405180910390a3505050565b600080546001600160a01b038381167fffffffffffffffffffffffff0000000000000000000000000000000000000000831681178455604051919092169283917f8be0079c531659141344cd1fd0a4f28419497f9722a3daafe3b4186f6b6457e09190a35050565b6000815180845260005b81811015610b7757602081850181015186830182015201610b5b565b5060006020828601015260207fffffffffffffffffffffffffffffffffffffffffffffffffffffffffffffffe0601f83011685010191505092915050565b602081526000610bc86020830184610b51565b9392505050565b80356001600160a01b0381168114610be657600080fd5b919050565b60008060408385031215610bfe57600080fd5b610c0783610bcf565b946020939093013593505050565b600080600060608486031215610c2a57600080fd5b610c3384610bcf565b9250610c4160208501610bcf565b9150604084013590509250925092565b600080600060608486031215610c6657600080fd5b610c6f84610bcf565b925060208401359150604084013560078110610c8a57600080fd5b809150509250925092565b600060208284031215610ca757600080fd5b610bc882610bcf565b60008060408385031215610cc357600080fd5b610ccc83610bcf565b9150610cda60208401610bcf565b90509250929050565b600181811c90821680610cf757607f821691505b602082108103610d1757634e487b7160e01b600052602260045260246000fd5b50919050565b60006001600160a01b038088168352808716602084015260a06040840152610d4860a0840187610b51565b606084019590955292909216608090910152509392505050565b634e487b7160e01b600052601160045260246000fd5b8082018082111561030357610303610d62565b8181038181111561030357610303610d62565b6001600160a01b0384168152602081018390526060810160078310610dd357634e487b7160e01b600052602160045260246000fd5b82604083015294935050505056fea2646970667358221220c44e0c03a419e333a2471a2e01ef2c5e3f10bc7690c8aa2b0d7ea5db91f3e28864736f6c634300081000335175616e746974792063616e6e6f74206265206c6172676572207468656e2062616c616e6365416464726573733a206c6f772d6c6576656c2064656c65676174652063616c6c206661696c6564a26469706673582212205cfbfad72fc7e0860106a4c5d6527ffe66906c19168036daa7ff70ed4f5bc60764736f6c63430008100033",
  "linkReferences": {},
  "deployedLinkReferences": {}
}